:020000040800F2
:10800000E8BE0120A982000807FD00088D83000852
:1080100005FD000871D30008B13001080000000020
:10802000000000000000000000000000B91A010874
:1080300085DE00080000000017830008651F0108A6
:10804000C3820008C3820008C3820008C3820008FC
:10805000C3820008C3820008C3820008C3820008EC
:10806000C3820008C3820008C3820008C3820008DC
:10807000C3820008C3820008C382000875D30008C9
:10808000C3820008C3820008C3820008C3820008BC
:10809000C3820008C3820008C3820008C1E9000847
:1080A000C3820008C3820008C3820008C38200089C
:1080B000D51F010871200108C3820008C38200088F
:1080C000C3820008C3820008C3820008C38200087C
:1080D000C38200082128010839280108C38200084A
:1080E000C3820008C3820008C382000800000000A9
:1080F0000000000000000000000000000000000080
:108100000000000000000000C3820008C3820008D5
:10811000A1270108C5270108C3820008C3820008FF
:10812000C3820008C38200088DD30008C382000800
:10813000C3820008B5E00008C3820008C3820008BB
:10814000C3820008C3820008C3820008C3820008FB
:1081500000F002F800F07FF80AA090E8000C8244DA
:108160008344AAF10107DA4501D100F074F8AFF2B7
:10817000090EBAE80F0013F0010F18BFFB1A43F005
:108180000103184780200400A02004000A444FF097
:10819000000C10F8013B13F0070408BF10F8014B66
:1081A0001D1108BF10F8015B641E05D010F8016BAB
:1081B000641E01F8016BF9D113F0080F1EBF10F80F
:1081C000014BAD1C0C1B09D16D1E58BF01F801CB32
:1081D000FAD505E014F8016B01F8016B6D1EF9D5B5
:1081E0009142D6D3704700000023002400250026CA
:1081F000103A28BF78C1FBD8520728BF30C148BF0A
:108200000B60704766293FF09880642900F07A81FE
:10821000782900F0B381632901F00783732901F005
:108220000C83002070471FB500F041FD01F09AFE5D
:108230000400002000213DF085FF401C606000200C
:1082400000213DF069FFE06002F096F91FBD10B516
:1082500002F0FBF910BD02F047FA1146FFF7E3FF09
:108260001FF076F802F00DFD03B4FFF7F0FF03BC3A
:108270000CF07BFC0B49D1F800C04A685CF8043B69
:108280001068184442F8040B8C4528BFA1F1DC0C9F
:108290008A4228BFA1F1DC02C1F800C04A6020F088
:1082A0000040704780B701200948804709480047CF
:1082B000FEE7FEE7FEE7FEE7FEE7FEE7FEE7FEE796
:1082C000FEE7FEE704480549054A064B70470000F3
:1082D000791F010851810008E8B80120E8BE01209B
:1082E000E8BA0120E8BA0120EFF3108072B67047B7
:1082F00080F310887047314A1368012B04D04FF087
:10830000010313602E4A10602E4A11602E484FF070
:10831000805101607047EFF3108272B62748016800
:1083200091B14FF0000101602548016829B1EFF3D8
:10833000098121E9F00F0068016022490968096894
:10834000B1E8F00F81F3098882F310884EF0040E33
:1083500070471C4908601A494FF00000086017492F
:108360004FF00100086019484FF47F01D0F8002059
:1083700041EA0201016014484FF080510160144845
:108380000068006880F3088862B670471EF0040F2A
:1083900014BFEFF30880EFF3098020E9F00F40F8F5
:1083A00004ED14BF80F3088880F3098800B52AF033
:1083B0005DF85DF804EB4EF0040E70478401002078
:1083C0007C0100208001002004ED00E020ED00E0B1
:1083D00008ED00E070477047704700000FB4044993
:1083E00010B503AA029801F02DFA10BC5DF814FB39
:1083F000DCB701200FB4014610B504AA039801F0C0
:1084000021FA10BC5DF814FB0FB41CB5074B06AA8B
:108410007B4469460090059801F0DDF9002069462B
:1084200001F0ECF91CBC5DF814FB0000E91300003E
:108430000FB41CB50C0007AA009001D02044401EC8
:10844000074B7B4469460190069801F0C4F9002C63
:1084500003D06946002001F0D1F91CBC5DF814FB83
:10846000C113000070B5044685690068C10601D5D6
:10847000302600E02026C00707D070BDD4E90121D6
:1084800030469047206A401C20626D1EF6D570BDB4
:1084900070B5044685690078C00707D170BDD4E97E
:1084A000012120209047206A401C20626D1EF6D5D5
:1084B00070BD70B50C460546012A05D028788006A7
:1084C00000D5EA69002302E0012305E05B1C93422A
:1084D00002D2E05C0028F9D1A869E618C01AA861A8
:1084E000286A184428622846FFF7BCFF04E0D5E953
:1084F000012114F8010B9047B442F8D32846FFF746
:10850000C7FF70BD2DE9F0410646002410687529AB
:10851000314616A510D0AFF30080002802DA4042A1
:1085200013A507E031688A0701D512A502E04907C3
:1085300004D511A5012401E0AFF3008000210A2237
:1085400006F1240709E0B0FBF2FCB0FBF2F302FBFA
:108550001C00303078541846491C0028F3D12346BB
:108560002A463046BDE8F04100F0C9BE00000000D8
:108570002D0000002B0000002000000070B5044614
:108580000D4621461068AFF300802188090502D509
:108590000F4A7A4402E00E4A7A440E32002104F176
:1085A000240305E000F00F060009965D5E54491CA7
:1085B0000028F7D120780023000704D5702D02D0C1
:1085C00009B1022311322046BDE8704000F097BE89
:1085D000690504002DE9F05F894604464FF0000A62
:1085E000DFF874B1FB44C0F820A02046E16888475A
:1085F000002874D0252806D0D4E901219047206AAC
:10860000401C2062F1E700265F462046E16888476B
:108610002028054607DB312D05D2781910F8200CEB
:1086200008B10643F1E7B00701D526F00406C4F807
:108630001CA00027C4F818A02A2D09D028460BF04A
:10864000E7FC38B304EB8708303DC8F8185019E050
:1086500059F8041B204604EB87029161E1688847C2
:10866000012F054618D1E069002820DA26F02006FF
:108670001DE0D8F8180000EB800005EB4000303812
:10868000C8F818002046E168884705460BF0C0FC92
:108690000028EED1012F0AD02E2D08D12046E16806
:1086A00088477F1C0546022F46F02006C4DBA069E0
:1086B000002803DA404246F00106A061F00701D02D
:1086C00026F010066C2D0BD0682D09D04C2D39D01A
:1086D0006A2D35D0742D35D07A2D33D016E038E0A0
:1086E000E1682F4620468847B842054609D16C2FDD
:1086F00026D04FF48060E16806432046884705464F
:1087000004E06C2F1AD04FF4807006430DB3A5F12E
:108710004100192802D8203546F400664A46294609
:10872000204626604E46FFF76DFD80B101280BD034
:10873000F61D26F0070000F1080956E74020E4E79F
:108740008020D8E70020D6E706F104094DE7284647
:1087500052E7206ABDE8F09F3F0504000FB400B562
:108760008DB010A9099000910B904FF0FF300A9046
:1087700000200C90064878440690064878446A46E3
:1087800007900F9909A801F083F80DB05DF814FB6C
:10879000371100004F1100002DE9FF5F1D464FF01B
:1087A000FF3B91464FF000085F46D5E90146A969B5
:1087B00001987F1C8847296A824688470028F6D19D
:1087C000BAF1FF3F0CD0002E24F4C06419DD60061E
:1087D00014D5BAF12B0F09D0BAF12D0F0ED103E049
:1087E000584604B0BDE8F09F44F48064A96901983C
:1087F0007F1C8847761E8246002E02DDBAF1300FBC
:1088000003D0B9F1000F26D032E0A969761E019895
:108810007F1C44F400748847002E824605DDBAF1BF
:10882000780F06D0BAF1580F03D0B9F1000F10D06D
:108830001EE0B9F1000F02D0B9F1100F18D1A969EB
:10884000761E01987F1C24F400748847824610200D
:1088500002E0082000E00A20814609E0A96908FB3F
:108860000908761E01987F1C44F4007488478246EC
:10887000002E05DD4946504600F0F6FF0028EDDAEF
:10888000E96901988847A00502D46FF00100A8E7C4
:10889000E00725D1600613D5600502D5C8F10000B8
:1088A00000E0404629680A1D2A600968220501D5B2
:1088B000087015E0220701D5088011E008600FE07C
:1088C0002868011D29600068210502D580F8008014
:1088D00006E0210702D5A0F8008001E0C0F8008082
:1088E00038467EE72DE9FF5F4FF0000899461446B1
:1088F00046469169D2E901A7DDF838B0019888476A
:10890000054659EA0B0005D009E0A1690198761CDB
:1089100088470546216A284688470028F5D1681C03
:1089200003D05FEACA7005D015E04FF0FF3004B005
:10893000BDE8F09F2068011D2160D0F800800AE0AA
:108940005FEACA7001D108F8015BA169761C019841
:108950007F1E88470546002F1ADD681C18D0B9F124
:10896000000F0DD0E81705EBD060421120F01F007A
:1089700059F822102A1A012090400142E0D107E064
:10898000BBF1000FDCD12846216A88470028D7D0E8
:10899000E16901988847BBF1000F07D1002E05DD82
:1089A0005FEACA7002D1002188F80010A068B842BE
:1089B00003DDBBF1000F03D017B16FF00100B6E784
:1089C0003046B4E770B5064600F08AFC04680546F8
:1089D00030460A22002100F0DBFF2C6070BD007BD6
:1089E00000F0400070472DE9F04117460D4604465F
:1089F0000646012913DD384617F072F8411C0CD0E9
:108A0000C0B20A2804F8010B02D06D1E012DF2DC61
:108A1000002020703046BDE8F081B44201D1002032
:108A2000F9E7384600F0ECFF0028F1D00026EFE728
:108A300070B50D46044604E0294618F039FC401C88
:108A400004D014F8010B0028F6D170BD4FF0FF30B0
:108A500070BD00002DE9F041044616460D464769F9
:108A6000007B80072ED038460CF083F850BB3EB315
:108A7000012E02D0022E25D104E0204601F0CCF9CF
:108A800005441DE038460CF071F8E168002841F01B
:108A90001001E16005DA204601F0E0F90120BDE8AF
:108AA000F081C9030BD56268E16A914200D8114692
:108AB000A26911442269891A814200DD08460544F1
:108AC000002D01DA0220EAE7E16A6068E26881428B
:108AD00006D29103E06203D522F4003141F0100286
:108AE000A6690027AE4213DCE16A814201D90B4638
:108AF00000E0034603EB060C2369ACEB030CAC452A
:108B000006DD814201D98C4600E084469C4505D1B2
:108B1000A760276042F02000A5620DE0AD1BE6696A
:108B2000AE1B8142A66000D90846C01A281A2060F0
:108B30005819606022F0200003490840E0600020DE
:108B400084F84870ABE70000BFCFD7FF2DE9F041B4
:108B50000C4607461646104600F06EF82078611C59
:108B600061280AD0722802D077283CD102E0012582
:108B7000002405E00225042402E0082448F202054E
:108B800011F8010B2B2806D0622809D011F8010C2E
:108B900074280AD00BE045F0030544F00204EFE727
:108BA00045F0040544F00104EAE744F010043846B7
:108BB00021460BF0E1FF411C15D0002131617160AD
:108BC0004FF40071F560F1617061200704D5304603
:108BD00002220021FFF73EFF306D40F001003065BA
:108BE0003046BDE8F0810020FBE72DE9F0410D465D
:108BF0000646104C206DC10704D0410804D020F077
:108C00000104F7E722460EE054201EF0D7FC0700CF
:108C10000ED0206D47F001010843542120653846ED
:108C200000F0F4F93A4629463046BDE8F0418DE7B8
:108C30000020D6E788B701202DE9F04704464FF021
:108C400000094FF0FF37C568D4E90486A80707D0AC
:108C5000204601F037F930460BF080FF002802DA99
:108C60003846BDE8F087280502D5404618F02DFBB0
:108C70004C21204600F0CAF9206D20F0010020654B
:108C80004846EEE70B4910B5A1F17C020A4CC2E957
:108C90003712372106E000EB104342F82130074B32
:108CA00000FB03400B1EA1F10101F4DC10BD01200B
:108CB000E8E7000020B70120E119D666CD0D0100DC
:108CC00030B503461D781DB10A4603E0AC4201D120
:108CD000181A30BD12F8014B002CF7D15B1CF1E7DC
:108CE00010B5431E13F8014F002CFBD105E011F81D
:108CF000014B002C03F8014B03D0521EF7D2002188
:108D0000197010BD30B505460B462A4613F8014BC5
:108D100012F8010B08B1A042F8D01CB1002802D013
:108D20006D1CF1E7284630BD40EA010310B59B07F2
:108D30000FD1042A0DD310C808C9121F9C42F8D0C5
:108D400020BA19BA884201D9012010BD4FF0FF3076
:108D500010BD1AB1D30703D0521C07E0002010BD8C
:108D600010F8013B11F8014B1B1B07D110F8013B18
:108D700011F8014B1B1B01D1921EF1D1184610BDF9
:108D800040EA0103024630B59B0710D14FF0013491
:108D900000E008C208C91D1B9D4315EAC41FF8D096
:108DA00013F0FF0102F8011B0DD01B0AF8E711F8C0
:108DB000013B002B02F8013B05D011F8013B002BD1
:108DC00002F8013BF3D130BD0022CBB210F8011BF9
:108DD000994200D1421E0029F8D11046704710B5C3
:108DE000431C02E010F8011B71B18107FAD14FF06A
:108DF000013202C88C1A8C4314EAC211F9D0C01A8D
:108E00000A0603D0C01E10BDC01A10BD0A0401D04E
:108E1000801E10BD0902FCD0401E10BD40EA0103B7
:108E200070B59B072ED14FF00136042A2AD308C80B
:108E300010C99D1B9D43121F15EAC61517D0D8B245
:108E4000E1B2401A50EA056110D198B2A1B2401ABD
:108E500050EA05410AD123F07F4024F07F41401AB7
:108E600050EA052102D1180EA0EB146070BDA34298
:108E7000DBD018BA21BA884201D9012070BD4FF069
:108E8000FF3070BD0AB9002070BD10F8013B11F829
:108E9000014B63B1A3420AD1521E08D010F8013B26
:108EA00011F8014B1BB1A34201D1521EEDD1181B89
:108EB00070BD421E12F8013F002BFBD111F8013B9F
:108EC000002B02F8013BF9D17047032A40F23080B1
:108ED00010F0030C00F0158011F8013BBCF1020FFB
:108EE000624498BF11F801CB00F8013B38BF11F87C
:108EF000013BA2F1040298BF00F801CB38BF00F893
:108F0000013B11F0030300F02580083AC0F008800F
:108F100051F8043B083A51F804CBA0E80810F5E7F3
:108F2000121D5CBF51F8043B40F8043BAFF30080D6
:108F3000D20724BF11F8013B11F801CB48BF11F84B
:108F4000012B24BF00F8013B00F801CB48BF00F81B
:108F5000012B704710B5203AC0F00B80B1E81850D3
:108F6000203AA0E81850B1E81850A0E81850BFF413
:108F7000F5AF5FEA027C24BFB1E81850A0E81850B2
:108F800044BF18C918C0BDE810405FEA827C24BF06
:108F900051F8043B40F8043B08BF7047D20728BF94
:108FA00031F8023B48BF11F8012B28BF20F8023BE3
:108FB00048BF00F8012B704702F0FF0343EA032289
:108FC00042EA024200F002B84FF000020429C0F069
:108FD000128010F0030C00F01B80CCF1040CBCF1EB
:108FE000020F18BF00F8012BA8BF20F8022BA1EB3D
:108FF0000C0100F00DB85FEAC17C24BF00F8012B22
:1090000000F8012B48BF00F8012B70474FF0000219
:1090100000B5134694469646203922BFA0E80C506E
:10902000A0E80C50B1F12001BFF4F7AF090728BF49
:10903000A0E80C5048BF0CC05DF804EB890028BFC5
:1090400040F8042B08BF704748BF20F8022B11F0EE
:10905000804F18BF00F8012B704710B5044610F080
:10906000030F08BF11F0030F40F015804FF0013ED1
:10907000121FC0F20E8051F8043BA3EB0E0C2CEA39
:10908000030C1CEACE1C08BF40F8043BF0D0A1F151
:10909000040102F10402521E08DB11F8013B002B0F
:1090A00000F8013BF7D11146FFF78EFF204610BDB7
:1090B0004FF0013C50F8042B51F8043B9A4221D167
:1090C000A2EB0C03934313EACC1317D150F8042BF3
:1090D00051F8043B9A4215D1A2EB0C03934313EAD7
:1090E000CC130BD150F8042B51F8043B9A4209D110
:1090F000A2EB0C03934313EACC13DBD04FF0000038
:10910000704700BFD01A01BAB1FA81F101F018011D
:1091100022FA01F0CB40C1F12001DBB2C0B2C01A8B
:109120002CFA01F3D11A914311EAC311E6D1704729
:1091300010B503681C1404EB21449BB289B2194496
:1091400094FBF2F302FB134394FBF2F401EB0343B1
:1091500093FBF2F102FB113193FBF2F301E05B1E92
:1091600011440029FBDB016003EB044010BD2DE935
:10917000F04704464FF0FF3A86B0006802906068FE
:109180000390A0680490E0680190206900906569F0
:1091900005F18040B0F1004F7DD83C22002102A8AB
:1091A000FFF7C6FF3C22014603A8FFF7C1FF1822C4
:1091B000014604A8FFF7BCFF411E40F2B55201A8CA
:1091C000FFF7B6FF0C22064668460021FFF7B0FF06
:1091D00000EB860028443E4D00267D440FE09A1A9D
:1091E000491CCDE90012022902D00C2907D104E064
:1091F000810704D0521C019201E0401C00960099A6
:10920000019B6A5C9A42EADD012906D11C2B04D13C
:10921000810702D00221CDE90016A0F146018B2979
:1092200040D20199009B00220F4602E0AE5C521C26
:1092300031449A42FADB012B02DD820700D0491E3D
:1092400040F2B55540F26D16C21700EB92729210C3
:109250006A4300F0030505FB062285070A4400D196
:10926000521E049D02EB4206DDF80C80A94605EB78
:10927000C605184EC5EB0515DDF808C008EB8505D9
:1092800035442E14ADB2C6EB0616C5EB0515B60077
:109290000CEB850500E005E006EB154666F31F457F
:1092A000360C03D0504606B0BDE8F087C4E9043060
:1092B0007F1C0720521CC4E9029792FBF0F3E4E8FC
:1092C00006C800FB132084E803042846EBE70000EF
:1092D0005AF90300A039CEFD70477047704700006F
:1092E0000048704784B8012010B5FFF7F9FF006807
:1092F00010BD10B50446FFF7F3FF046010BD2DE963
:10930000F0470D4699469246044600F1240801684C
:10931000880604D5E06921F01001216000E00120F9
:10932000A84201DD471B00E00027A1697A1902EB82
:109330000900081AA0612078C00602D42046FFF771
:1093400091F8002608E0D4E901211AF806009047B8
:10935000206A401C761C20624E45F4DB2078C00653
:109360000AD52046FFF77EF806E0D4E90121302037
:109370009047206A401C2062381EA7F10107F4DCE8
:1093800007E0D4E9012118F805009047206A401C45
:109390002062281EA5F10105F3DC2046FFF778F8CE
:1093A0002078000602D50220BDE8F0870120FBE707
:1093B00070472DE9FF4F0C461E464FF0FF378BB02C
:1093C000D2E90001DDF860800A908A46C1F30A55AF
:1093D00005B93D46002108464FF00000BAF1000FE4
:1093E00000F4400005DA00EB80004FF4400101EA90
:1093F00050004FEA9059B9F1010F00DDB9460A98C3
:1094000050EA4A000ED044F61050A5F2FF3545430D
:109410002F14B8F1000F1ED07542291E1EDDC9F1B0
:1094200000021CE0B8F1010F4FF0000001D0302124
:1094300003E0F24305E02154401CB042FBDB304620
:109440000022002121540B99C1F80880C1E90020B5
:109450000FB0BDE8F08FBD1B6D1CDEE74A4600DA99
:10946000694206A801F01AF806AB93E8070003ABBF
:1094700083E8070050460A9901F082FE8DE8070054
:10948000A0F500501F3800900398002D09DD42F22E
:109490001F014A46084403A90390684602F00BF9ED
:1094A00008E0A0F500504A461F3803A9039068461B
:1094B00002F029F98DE807000004000C03D04FF0FA
:1094C000FF30410800E01046B8F1000F03D0002241
:1094D000009215461EE0751E05D400F047FD30329F
:1094E00062556D1EF9D5B3460122084302D0002211
:1094F0007F1C04E02078302801D100227F1E002A42
:10950000099786D01DE0112D07DA00F02FFD3032CB
:1095100062556D1C50EA0102F5D1084302D0009853
:10952000C8B10EE00021681E05E0235C625C635454
:109530002254401E491C8142F7DBAB46A81B401E4B
:109540000990002004F80B000B98099AC0F80880D5
:10955000C0E9002B7CE711264FF0000859E72DE900
:10956000F04F88460446D21D22F0070191B0D1E9A0
:109570000001CDE90A010AF09AFC02460B98C00FDF
:1095800001D02D2007E02068810701D52B2002E0C3
:10959000202101EAC000032A099001D0072A05DB37
:1095A00003464146204600F02FFD0BE1207880065F
:1095B00001D5E06900E00620B8F1650F814606D0CC
:1095C000B8F1660F18D0B8F1670F70D131E0002004
:1095D000B9F1110F009001DB112301E009F1010342
:1095E0000AAA01A90CA8FFF7E4FEDDE90C70002629
:1095F00009F10105834647E001204B4600904FF0FA
:1096000000470AAA01A90CA8FFF7D3FEDDE90DB0B7
:109610000C995D46002610B909F101000D18B9EB4F
:10962000050003D4C0F1FF3609F10105A5EB0900DF
:109630002BE0B9F1010F01DA4FF001090020B9F177
:10964000110F0090484601DD112300E003460AAAED
:1096500001A90CA8FFF7ADFEDDE90C704D46002610
:109660008346207800070AD4AB4500DA5D4601A89E
:10967000012D04DD411911F8011C302907D04F4597
:1096800002DA17F1040F04DA012082460FE06D1EA2
:10969000EEE7002F02DCED1B3E4403E0781CA842FD
:1096A00000DD7D1CB81B00F1010A4FF00047207857
:1096B000000703D4AA4501DB4FF0FF3A0021B7F1C0
:1096C000004F0DF143088DF8431024D002202B23C6
:1096D000002F01DA7F422D230A21021EA0F1010092
:1096E00000DC5FB197FBF1FC97FBF1F201FB1C7C06
:1096F00017460CF1300C08F801CDEEE7A8F1010097
:1097000003702188090501D5452100E06521A0F1FC
:10971000010800F8011C09980FA9A1EB0807FF1D1B
:1097200000B10120411901EBEA70A1693844081A1F
:10973000401EA0612078C00602D42046FEF792FEAB
:10974000099828B1D4E901219047206A401C206281
:109750002078C00622D52046FEF784FE1EE0002EAB
:1097600004DBB34502DD01A8805D00E03020D4E9D0
:1097700001219047206A401C2062761CAAF101005A
:109780005FEA000A0AD100F0EDFBC0680168405CA6
:10979000D4E901219047206A401C2062281EA5F1CF
:1097A0000105DCDC07E0D4E9012118F8010B904742
:1097B000206A401C2062381EA7F10107F3DC204616
:1097C000FEF766FE032011B043E6000001694A1C63
:1097D00002610878704700B58FB0CDE901310021F2
:1097E000059105497944CDE9031011466846FEF715
:1097F000F1FE0FB000BD0000E5FFFFFF0A6802F8B0
:10980000010B0A607047D1E900239A4202D2531C2F
:109810000B601070704710B5436913B1AFF300804F
:1098200001E0FEF746FE012010BD127800F1240190
:109830000A7000224A700122EDE711684FF0FF32F2
:10984000E9E70000074B70B50D467B44FFF7C3FF07
:109850000446284600F0D4F810B14FF0FF3070BD38
:10986000204670BD637A01003A2800D2303820F0DB
:109870002002412A01D3A2F13700884201D34FF0E0
:10988000FF30704702681144137801601846704732
:10989000D16005497944516104497944116200213C
:1098A0001161114600F0F0BBEDFFFFFF590700000A
:1098B000426842B1016811F8013B23B1521EC0E970
:1098C0000012184670470121C160881E7047426827
:1098D0005AB1C368016843B983688B4205D0491EF9
:1098E000521CC0E90012002070474FF0FF30704753
:1098F0000FB4002300B589B00CA900910B99CB607F
:10990000204B7B440693204B7B44079304236FF04A
:109910000042CDE901321D4A7A446B460892024664
:1099200000203DF092FD09B05DF814FB70B50646CD
:109930004FF0FF3015460C46324686B00091CDE917
:10994000010169460020049004A8FFF7D1FF0346F7
:109950000498211825B108B10A4600E022462A6081
:1099600000280DD0002B02DD0098884208D0324636
:10997000081B69460094CDE9010404A8FFF7B8FF6D
:1099800006B070BDABFFFFFFC3FFFFFFDB060000AB
:109990002DE9F04791460F4680460446002614F80C
:1099A000015B2DB100F0D6FA0068405DC007F6D12A
:1099B0002B2D02D02D2D18D0641E4A463946204644
:1099C00000F01CFD27B13968A14201D1C7F8008021
:1099D0004FF0020471050BD54042002803DDFFF76C
:1099E0007FFC0460A007BDE8F08746F48066E4E7EA
:1099F0000028F8DAFFF774FC04606FF00040F2E72B
:109A0000007B00F08000704770B50D46014614469B
:109A1000D36850692A460BF0F1F8002807DA411C98
:109A200007D0E16820F0004041F48041E160281A4D
:109A300070BD204600F012FA4FF0FF3070BDC168D3
:109A40000022026021F4805141F0400111F4C06F06
:109A5000C16001D08260704702694168891AC26999
:109A6000891A816070472DE9F0470446C06840F4C8
:109A70008000E060010312D520F40020E060810640
:109A800006D4E26A61688A4200D80A46511A216007
:109A900040F40010E06094F82500BDE8F08720F461
:109AA0000010E060800602D5204600F02EFAE06843
:109AB00042F281014FF0FF390140012903D02046D5
:109AC00000F0CCF9B6E02168002600290ADAC94383
:109AD00040F480502160C4E902606068411C61600C
:109AE0000078DAE744F2400108420CD020F4A040AC
:109AF00040F040002660E06021696068401AE1693A
:109B0000401AA06096E0216991B9C00310D4E069C1
:109B10001DF054FD2061B0B1E06840F4006010F425
:109B2000407FE06002D140F48070E06020696060B6
:109B3000E068D4F814A0C1061AD5C0030ED520469B
:109B400000F0C0F914E004F1240020610120E0617C
:109B5000E06820F4407040F48060E6E721696068C6
:109B6000401AA169014450460BF05DF80028A6DBBD
:109B7000E068C0032AD56168E06A884200D80846D8
:109B80002169451AE069471B1BD02046D4F818808C
:109B900000F098F908EB05015046C4F818800BF066
:109BA00042F800288BDBE06840F40030E0600002FF
:109BB00002D5A0692844A061E1692069C91B451844
:109BC0000DE0204600F07EF9E769F5E72569616858
:109BD000D4E90607491BE56208446560A061E068B6
:109BE00020F0100010F4C06FE06002D0204600F0BA
:109BF0005FFDE06840F48050C4E90260000205D5D2
:109C00002069E06260606FF0010046E72246394655
:109C10002846FFF7F9FE411C0CD02918E16258B123
:109C2000401E2060681C6060E06840F40030E06026
:109C3000287832E7484630E765602046FFF7FFFEA8
:109C4000F8E72DE9F04705460C46C86820F42010D7
:109C500040F48000C860800602D5084600F055F93F
:109C6000E06841F282014FF0FF390140022903D040
:109C7000204600F0F3F8B5E000F42041B1F5004FC4
:109C80000FD1C00306D56168E06A884200D8084653
:109C9000606006E02069E062606060690AF066FF6B
:109CA000A061A0680022EEB200280DDAE1688B0501
:109CB0000AD4C043A06041F490302260E060606844
:109CC000411C61600670A5E0E0689046226040F4A7
:109CD0000050E060206968BB60690AF04AFF012714
:109CE00004F12405A0B1A08910F4407F08D0E069F8
:109CF0001DF064FC206118B1E06840F4006016E0DB
:109D0000E7612561E06820F4407040F480600EE077
:109D1000E0691DF053FC00282061F1D0E06840F4B8
:109D2000006010F4407FE06002D140F48070E06099
:109D300020696060E06825696FF0010AC1051FD5E0
:109D40006168E06A884200D80846411B04D0224678
:109D5000284600F08DF8F0BBE068010203D5E5620B
:109D6000C4E9015854E0691CE1626160E16940F4B2
:109D70008030491EC4E9021030462E70BDE8F087DD
:109D8000010202D500F480320AE06068411C616083
:109D90000670E0680A2E40F48030E06006D00022B1
:109DA000E16A6068814203D90B4602E00122F7E7CD
:109DB0000346A7895B1B7F0503D4E7699F4200DD4B
:109DC000E2B1814200D80146E5620F1AC4E90158A8
:109DD000002B09DD00E005E022461946284600F088
:109DE00047F808B14846C9E747B1A069E562656030
:109DF000C01BA061E06840F01000E060E068000275
:109E000008D56168A069E562491B08446560A061E6
:109E10005046B3E73046B1E710B50146C268900737
:109E200003D0900607D5886A0AE0FFF759FA0121A6
:109E30000160881E10BD8B69486818440B69C01A00
:109E400091F848301BB191F84910401A10BD110328
:109E5000FCD50028FADD401E10BD0000C16821F4C9
:109E6000001141F08001C1600021816001607047F4
:109E70002DE9F047814614460E464FF0FF38324830
:109E8000D5685769054209D03846A1690AF0CBFE6A
:109E9000002811DB2C48C0430540E5602B463246C4
:109EA000494638460AF0C8FEA16920F00042B21ABD
:109EB00011440028A16103D02046FFF7CFFF4046A0
:109EC000BDE8F08770B504460569C06A61688842DC
:109ED00000D80846E16821F42011E160C90312D5D9
:109EE000A84208D02246411B2846FFF7C1FF10B107
:109EF0004FF0FF3070BD0020E562C4E90150E0681A
:109F000020F48030E060002070BD10B50446C068C9
:109F100020F02000E060A16AA06988420DD02046B0
:109F2000FFF7D0FFE06820F4405040F01000E06000
:109F3000A06AA0612069E062606044F24001E068CC
:109F40008843E06010BD0000100002000048704728
:109F500084B8012010B500F005F8001D10BD00BF49
:109F6000E5C1030000487047A4B8012030B5B0F146
:109F70000A024FEA900E71F100034EEA817EB0EBC7
:109F80000E0061EB91014FEA101E4EEA017E10EBCC
:109F90000E0041EB11114FEA102E4EEA016E10EB4C
:109FA0000E0041EB11214FEA104E4EEA014E10EB2C
:109FB0000E0041EB1141401841F100014FEAD00081
:109FC00040EA41704FEAD10110EB80054FEA81046D
:109FD00044EA907444EB01046D1944EB0404521BF1
:109FE000A3414FF0000348BF0A3200D530BD401CEA
:109FF00041F1000130BD10B50446FFF7ABFF00682A
:10A00000005D00F0010010BD2DE9F0411F4604463F
:10A0100003260168072A01F4006004DB08B116A5D5
:10A0200005E016A503E008B115A500E015A521F08F
:10A0300010002060A069C01EA0610FB1401EA06189
:10A040002046FEF70FFA4FB1D4E901213846904778
:10A05000206A401C2062C01C206206E0206AFAE7E9
:10A06000D4E9012115F8010B9047761EF8D220465D
:10A07000FEF70EFABDE8F0814E414E006E616E00B3
:10A08000494E4600696E66002DE9F34F4FF0000A15
:10A090000C4656468DB001200C9001F10C000B903F
:10A0A00062690B980121904705002DD0252D2CD0F9
:10A0B000216A8847C0B162690B9801219047216AE3
:10A0C00088470028F7D16269411E0B98904700E04D
:10A0D000761CA1690D988847216A88470028F7D126
:10A0E000E1690D988847DBE7A1690D988847A84288
:10A0F000074601D1761CD3E7E1690D9888477F1C9C
:10A1000002D1BAF1000F6FD06BE162690B980027A2
:10A110003D46394690472A2804D162690B980121AF
:10A1200090470125DFF8D08262690B9801219047A2
:10A13000A0F130010A290AD24745E5DC07EB870187
:10A1400000EB4107303FDFD445F01005ECE7E906AE
:10A1500001D46FF000476C280AD04C2814D068282E
:10A1600015D06A280DD074281CD07A281AD01DE08A
:10A1700062690B98012190476C2802D045F00405D4
:10A1800014E045F002050DE045F020050AE06269A3
:10A190000B9801219047682802D045F0080505E09A
:10A1A00045F4006562690B9801219047C4E90157A5
:10A1B00065283DD019DC58287AD00CDC452837D0EA
:10A1C00004DC252826D041289ED131E046282FD016
:10A1D000472899D12CE05B2877D0612828D06328C4
:10A1E0007CD0642823D15AE0F6E06F2848D008DC00
:10A1F00066281DD067281BD0692821D06E2816D16B
:10A2000027E0702845D0732868D0752847D0782873
:10A210000DD14DE0A1690D988847252805463FF4EA
:10A2200069AFE1690D9888476D1C3FF46AAFD8E0CB
:10A230000D9923466A466FF001003DF006F9C5E02E
:10A2400045F0400023464FF000026060A80736D476
:10A250003EE0E8077FF447AF2068011D21600068F9
:10A26000290501D506701BE7290701D5068017E7E8
:10A27000A90703D5F117C0E9006111E706600FE7F0
:10A2800045F0400023464FF008026060A80716D44E
:10A290001EE040F60E0125EA0100606016E045F080
:10A2A000400023464FF00A026060A80707D40FE081
:10A2B00045F040006060A80708D5234610220D999C
:10A2C0006FF00100AFF3008080E007E0102223462A
:10A2D0000D996FF00100FEF75FFA77E04FF000098B
:10A2E00063284F46C8464B46CB4602D05B2806D073
:10A2F00038E0E80601D40120A060012732E062695D
:10A30000D4F80CB00B98012190475E2807D14FF08C
:10A31000010949466269D4F80CB00B98904721694D
:10A3200039B900210A4603AB43F82120491C08290A
:10A33000FADBD8B3216949B308F1010862690B98C7
:10A34000012190475D28F4D1B9F1000F09D0002018
:10A3500003A951F82020D24341F82020401C0828AE
:10A36000F7DB03AB2069002820794FEA40701ED04C
:10A370005B462246CDF80080CDE901970D99002873
:10A380006FF0010020DAAFF300801FE0C11703AACD
:10A3900000EBD1614B1121F01F0102EB8302411A46
:10A3A00013680120884003431360C7E719E00D9943
:10A3B000224600286FF00100009702DAAFF3008018
:10A3C00004E0FEF78FFA01E0AFF3008000280ADA1C
:10A3D000401C06D10C9820B14FF0FF300FB0BDE803
:10A3E000F08F5046FAE7E90701D10AF1010A064465
:10A3F00000200C9054E60000CCCCCC0C2DE9F05F92
:10A40000824615468B4600270AF10104B9460078BA
:10A41000302801D09DB113E014F8010B01277828F2
:10A4200003D0582801D045B10AE00DB1102D07D155
:10A43000002714F8010B102502E0082500E00A258A
:10A440000026B0460EE005FB080005FB06F10127DB
:10A450001FFA80F801EB1046B6F5803F00D3B946ED
:10A4600014F8010B2946FFF7FFF90028EBDABBF1DE
:10A47000000F05D00FB1641E00E05446CBF8004039
:10A48000B9F1000F06D0FEF72BFF02210160C81EB4
:10A49000BDE8F09F48EA0640FAE700002DE9F047E2
:10A4A000814616468AB0334878440DC88DE80D00C1
:10A4B00030487844801C03AC0DC884E80D0041F698
:10A4C0009B300844372190FBF1F290FBF1F5A5F1A8
:10A4D000800501FB12041B3C02D56442012000E010
:10A4E0000020DFF890A080460027FA44AAF1BE0AB7
:10A4F0000DE0E00709D03246684607EB47010AEB5A
:10A50000810101F000F98DE8070064107F1C002C28
:10A51000EFD1184F7F44AC3F18E0E80714D007EBA9
:10A5200004100DF1180A90E80E008AE80E00C068C9
:10A53000F04201D198190890324606A903A801F00B
:10A54000E2F803AB83E807006D10641C002DE4D132
:10A5500032466946B8F1000F03A802D001F0ABF80B
:10A5600001E001F0D0F8C9E90001C9F808200AB0FB
:10A57000BDE8F08714E7030010B542485421FEF708
:10A5800045FD41485421FEF741FD40485421FEF766
:10A590003DFD3F493B483C4A3F4B08603D490A600E
:10A5A0003A491960531C0365481C10650120086571
:10A5B0003B48344A39A17844FEF7C8FA20B93848F4
:10A5C00078440A3800F063FB37482F4A35A17844B5
:10A5D000FEF7BCFA20B9344878440A3800F057FB3B
:10A5E00032482A4A2FA17844FEF7B0FA20B92F4802
:10A5F00078440A3800F04BFB40232248DC0000215D
:10A60000224600F01BFB20B125487844543800F066
:10A610003EFB1D4822464023002100F00FFB20B1E5
:10A6200021487844543800F032FB18482246102361
:10A63000002100F003FB002806D01C487844BDE848
:10A640001040563800F023BB10BD104870B5006DA7
:10A6500020F001040B48FEF7EFFA0B48FEF7ECFA86
:10A660000A48FEF7E9FA09E0206D20F001052046CE
:10A67000FEF7E2FA204616F028FE2C46002CF3D115
:10A6800070BD000088B70120DCB7012030B8012080
:10A69000A0040020A4040020A804002072000000F0
:10A6A000CBDB030077000000B9DB0300A8DB03006D
:10A6B00070B5054640F202260A4C0FE094F85000AF
:10A6C000C00708D0AC4206D0E06836EA000002D1EC
:10A6D000204600F081FA206D20F00104002CEDD11D
:10A6E00070BD000088B701207546FFF72FFCAE460D
:10A6F00005006946534620F00700854618B020B58E
:10A70000FDF7E0FDBDE820404FF000064FF00007E8
:10A710004FF000084FF0000B21F00701AC46ACE809
:10A72000C009ACE8C009ACE8C009ACE8C0098D4676
:10A73000704700002DE9FF4F064689B00878FF28D2
:10A7400006D0491C2D2805D000244FF0000908E050
:10A7500000200CE00124F8E709EB8903491C00EB19
:10A7600043090878FF28F7D114B1C9F100008146E8
:10A77000107800252C46AA4629462D2801D02B28E2
:10A7800004D1521C2D2813D0002082468B4610780D
:10A79000FF280FD04FF0000C0A21521CA5FB0178B6
:10A7A00004FB018105FB0C11C5194BEB0104EEE71D
:10A7B0000120EAE7002108464FF00000BAF1000F3F
:10A7C00002D000EB80004008C0F38158B8F1010FBF
:10A7D00001DD4FF0FF380C9809EB000755EA040043
:10A7E00009D04FF0020917F5FA7F0BDA4FEACA7069
:10A7F000C6E900B012E04FEACA70C6E900B00DB079
:10A80000BDE8F08FB7F5FA7F0DDDF0487844D0E968
:10A810000010C6E9001040EACA707060FEF760FDE3
:10A82000C0F80090EBE7391E02DAC8F1000200E040
:10A83000424600DA794206A8FFF730FE06AB93E8FD
:10A84000070003AB83E8070044F23E005BEA040123
:10A850000090584604D144F21E012C465D460091FA
:10A86000210C0904014306D10099240444EA15444B
:10A870002D041039009104F07F41014306D1009965
:10A88000240244EA15642D020839009104F0704155
:10A89000014306D10099240144EA15742D01091FD2
:10A8A000009104F04041014306D10099A40044EA1C
:10A8B0009574AD00891E009104F00041084304D155
:10A8C00000986D196441401E009042466846002F72
:10A8D000CDE9014503A902DD00F029FF01E000F008
:10A8E000FEFEBAF1000F04460D4601D084F000448C
:10A8F00040F2FF7724F00040284303D0C4F30A500D
:10A90000B84212D1FEF7ECFCC0F80090C4F30A5034
:10A91000B8420AD1AE487844D0E90010C6E9001028
:10A9200004F000410843706069E7C6E9005466E737
:10A930002DE9FF4F1F464FF0000A4FF0FF38454604
:10A9400091B0D7E90146CDF83CA0FFF70BFBC068FA
:10A950000168405C1090B96912986D1C8847396A8B
:10A96000814688470028F6D1B9F1FF3F0AD0002E72
:10A9700024F4D06411DDB9F12B0F08D0B9F12D0FFB
:10A980000BD102E0404615B03AE744F48064B9695F
:10A9900012986D1C8847761E8146600504A901D572
:10A9A0002D2000E02B20002E01F1010B0DF13008CD
:10A9B0008DF810003FDDB9F1690F08D0B9F1490FEA
:10A9C00005D0B9F16E0F02D0B9F14E0F1CD13B4644
:10A9D00001A8009580E85002DDE912126FF0020034
:10A9E0003CF037FDC11CCED10EE0B96912986D1C48
:10A9F000884781461398761E44F4007405600F98CA
:10AA0000401C002E0F9016DDB9F1300FEDD0B9F1DA
:10AA1000780F02D0B9F1580F0DD10F9801280AD143
:10AA20003B46CDE90054DDE91212001F02963CF0CE
:10AA30000EFDC11CA7D1109989453ED144F0800478
:10AA400006E01399681CAAF1010A44F40074086036
:10AA5000B9696D1C1298761E884730288146F0D05F
:10AA60002BE01099894505D1200603D4761E44F0C9
:10AA7000800418E0484609F0CBFA08B3761E0DF1C1
:10AA800023018B4544F4007408D2A9F130000BF87F
:10AA9000010B200607D5AAF1010003E0200602D42D
:10AAA0000AF101008246A00502D51399681C0860CE
:10AAB000B96912986D1C88478146002ED1DC53E09D
:10AAC000002E51DDB9F1650F02D0B9F1450F4BD120
:10AAD000A00549D5B9696D1C1298761E24F44074FE
:10AAE0008847002E81460CDD2B2804D0B9F12D0FAC
:10AAF00007D144F48074B96912986D1C8847761E9A
:10AB00008146E00501D52D2100E02B2108F8011B2D
:10AB1000CDF8008021E0761E0DF13901884544F41E
:10AB200000740CD2A9F1300010F0FF0088F800008A
:10AB300002D10099884509D908F1010806E0E0052D
:10AB400001D5244801E042F20F708246B96912989B
:10AB50006D1C8847814613980560002E04DD484629
:10AB600009F056FA0028D6D1F96912988847FF20D3
:10AB700053468BF8000088F8000000200A900B90E4
:10AB800004AA0CA90AA8FFF7D5FDA00502D46FF00E
:10AB90000100F8E614F0240F0AD0E00714D1386859
:10ABA000DDE90A12031D3B600068C0E900120BE0FA
:10ABB0000AA9684609F09EF9E00705D13868009AAD
:10ABC000011D3960006802602846DCE624FA0300B3
:10ABD0001AF90300F1D8FFFF70B50446C068810779
:10ABE00013D0800601D5A56A04E0A1696068084415
:10ABF0002169451A2046FFF765F9002206462946D5
:10AC00002046FDF727FF304670BD002070BD70B5AF
:10AC100010B1BDE87040DFE70025074C6E1E07E06D
:10AC20002046FFF7D9FF00B13546206D20F0010422
:10AC3000002CF5D1284670BD88B7012070B5C468D6
:10AC4000A50713D0650211D4B2F5807F09D0B2F503
:10AC5000007F06D0B2F5806F08D1012300F12401F6
:10AC600006E05D1E6FF07F46B54201D3012070BD46
:10AC70000161C361416024F470611143C16000202F
:10AC800070BD0446AFF300802046FDF7EDFA10B525
:10AC900000F00AF8BDE81040AFF30080002801D0B2
:10ACA00009F063BF7047000010B5014602A000F034
:10ACB0003BFA012010BD000053494752545245440D
:10ACC0003A2052656469726563743A2063616E2745
:10ACD00074206F70656E3A20000000002DE9FF4F70
:10ACE0001F464FF03C0987B04FF00042DDE91410D9
:10ACF00001F10108DDF858A002EA4050039000205D
:10AD000004908346054604460590B969461E089896
:10AD10008847AAF1010A0290BAF1000F37DD0298C4
:10AD20002E2815D01021FEF79FFD00282ADB4FF0BA
:10AD3000010B0499014316D0B9F1000F0BDB4A4611
:10AD4000C11700F00AFA05430C43A9F1040905E014
:10AD50000120059007E008B145F0010501200490AD
:10AD6000059800B9361DB969089808F101088847A7
:10AD7000BBF1000FAAF1010A0290CDD00999C1F8E8
:10AD80000080C9E70298702808D0502806D0F969D9
:10AD900008988847BBF1000F14D04FE000200290C4
:10ADA0000120BBF1000F049009D0B969089808F19F
:10ADB00001088847AAF10109B9F1000F07DCF96918
:10ADC000089888476FF001000BB0BDE8F08F2B2882
:10ADD00004D02D280CD14FF0FF300490B9690898A9
:10ADE00008F101088847A9F10109B9F1000FE6DD72
:10ADF000411CE4D00A21FEF737FD0028DFDB029971
:10AE000008F1010801EB810100EB41000290B969F2
:10AE1000089888470A21FEF727FD099AA9F1010938
:10AE2000B9F1000FC2F8008001DD0028E7DAF96906
:10AE3000089888470499029800FB016655EA0400C7
:10AE400004D004F04041090002D006E0039898E0E5
:10AE5000A40044EA9574AD00B61E04F00041080059
:10AE600002D16D196441761E159810F0240F03D09D
:10AE70004FF00B095C4803E04FF028096FF07D00AC
:10AE80008246564507DAAAEB06018944B9F1410F1B
:10AE900001DD4FF0410901200021A9F1010200F07C
:10AEA0005CF9024628400B462140084301D00121AD
:10AEB00000E00021501E029143F1FF312840214063
:10AEC000084301D0012000E000200299834651EAA6
:10AED0000B014FD0002108464FF00000039900F409
:10AEE000400039B100EB80004FF4400100EBD0701E
:10AEF00001EA60008015012802DD4FF0FF3000E01C
:10AF000013D0401C36D0029860B3BBF1000F0CD1B7
:10AF10004A460120002100F020F928402140084342
:10AF200001D0012000E00020E0B101204A460021CC
:10AF300000F013F9034640190A4661412D1A8C416D
:10AF400011D3B9F1400F09DD159810F0240F02D08C
:10AF5000AAF1340603E0AAF1170600E0761C0025EA
:10AF60004FF0004406E05B1E42F1FF3220EA030589
:10AF700021EA0204CAF10100B04206DA1B49039833
:10AF800008430190002000900EE0039AC4F3D321FF
:10AF9000E80A0A43164940EA44500A433146CDE9DB
:10AFA0000002684609F014F8159810F0240F0BD031
:10AFB0001598C00715D13868DDE90012031D3B6004
:10AFC0000068C0E900120CE002A8694608F092FF90
:10AFD0001598C00705D13868029A011D39600068CC
:10AFE00002604046F0E6000002FCFFFF0000F07F38
:10AFF0000000F03F2DE9FF4F92461D4685B04FF00F
:10B000000041DDE9124BDDE914727F1E01EA4B506D
:10B01000414940F0FF4940EA0108002122F02000A8
:10B020004928049102D04E2828D04CE03BA00126AC
:10B0300007C88DE80700A9690698641C88477F1E29
:10B04000014606D41DF8060018B121F02001814206
:10B050000BD0E96906988847032E34D0082E32D0E9
:10B060006FF0010009B0BDE8F08F761C032E01D00F
:10B07000082EE0D1601CCAF80000DCE7A969069838
:10B08000641C88477F1E2AD420F02000412826D146
:10B09000A9690698641C88477F1E20D420F02000F0
:10B0A0004E281CD1A9690698641C88477F1E48F465
:10B0B000002849F48009CAF8004001D4282806D0A5
:10B0C000E969069888475FEACB7012D022E0A96947
:10B0D0000698641C88477F1E01D4002803DAE969BA
:10B0E00006988847BCE72928F1D1641CCAF80040BB
:10B0F000E9E71BF0240F07D028680499031D2B6093
:10B100000068C0E9001805E02868021D2A60006890
:10B11000C0F800902046A5E70000F07F494E464960
:10B120004E4954590000000070B505460C460A20EF
:10B1300000E06D1C09F09EFD35B128780028F8D19B
:10B1400002E0641C09F096FD14B120780028F8D1C3
:10B15000BDE870400A2009F08DBDB2F120030AD588
:10B16000C2F1200301FA02F120FA03F300FA02F01F
:10B1700041EA0301704700FA03F14FF00000704705
:10B180005FEA400C08BF91F0000F4FEA8C234FEAB2
:10B19000C12243EA51514FEA1C5018BF00F5F0405C
:10B1A0004FEA300018BF41F000415FEA6C5C00F0EC
:10B1B0002980BCF1FF3F08BF40F080407047130C6E
:10B1C00006BF12044FF0100C4FF0000C130E04BF1A
:10B1D00012020CF1080C130F04BF12010CF1040C45
:10B1E000930F04BF92000CF1020CD30F04BF520066
:10B1F0000CF1010C11464FF00002A0F11F00A0EB72
:10B200000C00704711F0004F08BF704731F000414B
:10B210003FF4D5AF0B0C06BF09044FF0100C4FF0F4
:10B22000000C0B0E04BF09020CF1080C0B0F04BF3D
:10B2300009010CF1040C8B0F04BF89000CF1020C06
:10B24000CB0F04BF49000CF1010CCCF12003A0EBA3
:10B250000C0022FA03F302FA0CF241EA030100F1B6
:10B260000100704720F07F4C80EA030023F07F4705
:10B27000ACEB070303F57C5300F0004003F1FF0340
:10B280002DE980494FEA154B09B44FEA144325EAEA
:10B290000B4E24EA03480FF2042606EB1327490855
:10B2A0003E785FEA320203FB0667C7F5000707FB3B
:10B2B00006F64FEA54374FEAD64606F1020607FB78
:10B2C000066CCCF1005C4FEA1C472CEA074C07FBEC
:10B2D00006F40CFB06F504EB15464FEA961634BF50
:10B2E00000204FF000404FEAD13706FB07FC4FEA41
:10B2F0001C4C0CFB0BF7D21B03FB0CF761EB07019B
:10B300000CFB0EF7B0EB074072EB17420CFB08F793
:10B3100034BFA2EB0742B2EB074261EB17414FEAA1
:10B320000C444FEA910706FB07FC4FEA1C4C0CFB50
:10B330000BF7B0EBC74072EB573203FB0CF734BF8F
:10B34000A2EBC742B2EBC74261EB57310CFB0EF7E1
:10B35000B0EBC70072EB57720CFB08F734BFA2EBDF
:10B36000C702B2EBC70261EB5771039F4FEA8161DD
:10B3700041EA921104EBCC044FEAD1374FEA8262E2
:10B3800006FB07FC42EA90124FEA80604FEA1C4C31
:10B390000CFB0BF7D21B03FB0CF761EB07010CFB5B
:10B3A0000EF7B0EB074072EB17420CFB08F734BF07
:10B3B000A2EB0742B2EB074261EB17414FEA8C5513
:10B3C0004FEA910704EB9C2406FB07FC4FEA1C4C58
:10B3D0000CFB0BF7B0EBC74072EB573203FB0CF7DB
:10B3E00034BFA2EBC742B2EBC74261EB57310CFB53
:10B3F0000EF7B0EBC70072EB57720CFB08F734BFC7
:10B40000A2EBC702B2EBC70261EB577115EB4C25FB
:10B410004FEA816141EA92114FEA82624FEAD137E5
:10B4200042EA901206FB07FC44F100044FEA8060F8
:10B430004FEA1C4C0CFB0BF7D21B03FB0CF761EB28
:10B4400007010CFB0EF7B0EB074072EB17420CFB49
:10B4500008F734BFA2EB0742B2EB074261EB17419A
:10B4600015EB1C154FEA813141EA92414FEA8232D5
:10B4700042EA90424FEA80304FEA0C7644F10004F1
:10B4800048EA03434EEA0B484FF0000EB2EB080CBB
:10B4900071EB030724BF624639464EEB0E0E4FF0A8
:10B4A000000B0018524149414BEB0B0BB2EB080C5F
:10B4B00071EB03077BF1000B24BF624639464EEB6C
:10B4C0000E0E4FF0000B0018524149414BEB0B0B95
:10B4D000B2EB080C71EB03077BF1000B24BF624653
:10B4E00039464EEB0E0E51EA020718BF46F0010630
:10B4F00016EB0E7655F1000254F1000103D5BDE8BC
:10B500008901BDE80088BDE88901BDE80048B61999
:10B51000524141EB0101A3F10103704780807F7E1E
:10B520007D7C7B7A797877767675747372717170B9
:10B530006F6E6E6D6C6C6B6A6A696868676666656B
:10B540006464636362616160605F5F5E5E5D5D5CF9
:10B550005C5B5B5A5A59595858575756565555556A
:10B560005454535352525251515050504F4F4F4ECA
:10B570004E4D4D4D4C4C4C4B4B4B4A4A4A49494918
:10B58000484848474747474646464545454444445A
:10B5900044434343434242424241414146EA064614
:10B5A000A3F570534FEA164646EA42564FEAD222B6
:10B5B00042EA415210B54FEAD121A3F1010300F054
:10B5C00017F820F0004000F1010C00F0004701EBFB
:10B5D00000501146BCF5006F40EA070000D210BDD4
:10B5E00002484FF0000140EA070010BD0000F07F64
:10B5F000002B26D4770021D01CB54FEA370703B4BF
:10B600004FF010004FF010014FF000000FBCBDE8EC
:10B6100010400BF1010BBBF1010F08BF5FEA1707E8
:10B6200022BF12F1010211F101014FF0004143F17B
:10B63000000300F0004043EA00007047F9D35708C8
:10B64000DAE746EA064613F1400F4FEA16461FDDD9
:10B6500013F1200FDFBF16430A46002120335B425F
:10B66000C8D0C3F1200746EA064602FA07F74FEAB8
:10B67000164646EA0706C3F1200722FA03F201FA4A
:10B6800007F721FA03F14FF0000342EA0702B1E79E
:10B6900046EA020646EA06464FEA164646EA01062A
:10B6A000BCBF46EA0646360C4FF000034FF00002DE
:10B6B0004FF000019EE72DE9C048934630B491E871
:10B6C000380007C831EA400C48BF34EA430C03D5C0
:10B6D000FFF7C8FDFFF78CFFF0BCBDE800882DE93F
:10B6E000C048934630B491E8380007C831EA400CAE
:10B6F00048BF34EA430C03D5FFF7B4FDFFF74EFF14
:10B70000F0BCBDE800882DE9C048934630B491E80C
:10B71000380007C810F0804F08BF13F0804F03D1E6
:10B7200000F019F8FFF764FFF0BCBDE800882DE9D0
:10B73000C048934630B491E8380007C810F0804FF5
:10B7400008BF13F0804F03D100F005F8FFF726FF84
:10B75000F0BCBDE8008820F07F4780EA030023F0BA
:10B760007F4C07EB0C03A3F57C5300F00040A3F1E2
:10B77000FE0392F0000F00F0B38095F0000F00F090
:10B7800077802DE901494FEA11404FEA144621EA3A
:10B79000004800FB06FC24EA064708FB06F607FB08
:10B7A00008F800FB07F718EB06484CEB164C4FEA7D
:10B7B000124B18EB07484FEA15464CEB174022EAAC
:10B7C0000B4E0BFB06FC25EA06470EFB06F607FBB5
:10B7D0000EFE0BFB07F71EEB064E4CEB164C4FF024
:10B7E00000061EEB074E4CEB174B18EB0B0840F115
:10B7F000000018EB0E0B58EB000840F100008F1A08
:10B800004FF000013CBFC943661B14BFB5EB040CED
:10B8100000213CBFC943F61B4FEA17444EEA8E0E87
:10B8200027EA04454FEA1C4704FB07622CEA074C51
:10B8300005FB07F70CFB05F604FB0CFC16EB0746B3
:10B8400042EB174216EB0C4642EB1C421BEB060682
:10B8500058EB0202414146EA9E0601D5BDE8018946
:10B86000B619524141EB0101A3F10103BDE8018981
:10B870004FEA14454FEA114724EA054621EA074CEE
:10B8800005FB07F406FB07F70CFB06F105FB0CFCB8
:10B8900011EB074144EB17444FEA124711EB0C41FF
:10B8A00044EB1C4422EA074C05FB07F206FB07F7B2
:10B8B0000CFB06F605FB0CFC16EB074642EB1742A9
:10B8C00016EB0C4642EB1C456A1854F1000148BFC8
:10B8D0007047B619524141EB0101A3F101037047D2
:10B8E00095F0000F37D04FEA11424FEA144721EA92
:10B8F000024624EA074C02FB07F106FB07F70CFBA4
:10B9000006F402FB0CFC14EB074441EB17414FEA31
:10B91000154714EB0C4441EB1C4125EA074C02FB94
:10B9200007F506FB07F70CFB06F602FB0CFC16EB13
:10B93000074645EB174516EB0C4645EB1C42121922
:10B9400051F1000148BF7047B619524141EB010166
:10B95000A3F1010370474FEA14454FEA114724EA67
:10B96000054621EA074C05FB07F106FB07F70CFB30
:10B9700006F24FF0000605FB0CFC12EB074241EB10
:10B98000174112EB0C4251EB1C4148BF7047921813
:10B9900041EB0101A3F10103704700000FB4F8B5BA
:10B9A000054640F60C515048FDF70EFB07AA4FA183
:10B9B0004D48FCF729FD4C4C3026312004F8196F16
:10B9C0004FA360700B99090EA1700B99090CE170DF
:10B9D0000B99090A21710B9961710C99090EA171DA
:10B9E0000C99090CE1710C99090A21720C99617288
:10B9F0000D99090EA1720D99090CE1720D99090AB0
:10BA000021730D99617338490E9A41F8272FBDF8BB
:10BA10003C208A809DF83E208A71BDF840100A0AB9
:10BA20006275A175BDF842100A0AE27521769DF88B
:10BA3000671061769DF86810A176E67620776077CA
:10BA40002EA0009028482FA2373030A1FCF7DCFC54
:10BA500084F8296004F82A6F3920607022482EA1EA
:10BA60004530FCF7D1FC2048DDF859100A2340F896
:10BA70004E1FBDF85D10818000201B491890ADF865
:10BA800064004865A1F858004520E0754E2004F890
:10BA9000180F442060705D214FF47A7091FBF0F034
:10BAA000303004F8560D642091FBF0F090FBF3F277
:10BAB00003FB12003030607091FBF3F090FBF3F267
:10BAC00003FB12003030A07091FBF3F003FB101069
:10BAD0003030E07084F858305E212A46024806F083
:10BAE00009F8F8BC5DF814FB98A9012041505331C6
:10BAF000313030303030303031257300312E31006C
:10BB0000310000004543555F5200000025735F255A
:10BB1000732E2573000000004574632F474D542D8C
:10BB20003800000070B50D460646144640F60C512C
:10BB30002148FDF749FA56B120A11F48FCF764FCE3
:10BB400010212A46BDE870401B4805F0D3BF20A154
:10BB50001948FCF759FC1848210E4FF47A72C1734A
:10BB6000210C0174210A417484744521C1744E2151
:10BB7000017544214175162191FBF2F23032427178
:10BB8000642291FBF2F30A2293FBF2F402FB1433DA
:10BB90003033837191FBF2F393FBF2F402FB143325
:10BBA0003033C37191FBF2F302FB13113031017298
:10BBB00082751721C5E7000098A901204150533133
:10BBC00031303031353030313330310A000000004F
:10BBD000415053313130303030303031333030003B
:10BBE00070B586B0044600200D460090019002908A
:10BBF00003900490164640F60C513548FDF7E4F9E1
:10BC000001A809F035FA012C0FD032A13048FCF719
:10BC1000FBFB2F4C0F21302204F11100302E0CD0F1
:10BC2000312E12D0322E19D022E02EA12848FCF756
:10BC3000EBFB10212A46264845E0E27322740146B8
:10BC40006A4601A821F068F810E0E27331212174FE
:10BC500001466A4601A820F0D5FC07E0E2733221D4
:10BC6000217401466A4601A821F09AF90099113120
:10BC700045206054491C4E206054491C44206054A7
:10BC80004FF47A70491C91FBF0F030306071642001
:10BC900091FBF0F20A2092FBF0F300FB132230320A
:10BCA000A27191FBF0F292FBF0F300FB1322303211
:10BCB000E27191FBF0F200FB1212303222726054FA
:10BCC0002A460348491C05F015FF06B070BD000068
:10BCD00098A9012041505331313030313530303066
:10BCE0003430300041505331313030313530303024
:10BCF0003430310A0000000010B50C4650B111A1DB
:10BD00001548FCF781FB10212246BDE8104012487F
:10BD100005F0F0BE002211A10F48FCF775FB0E489C
:10BD2000302264211130FDF747F90B48452100F816
:10BD3000751F4E214170442181700A21C170792103
:10BD4000E2E700004150533131303031353030308E
:10BD50003830310A0000000098A9012041505331C9
:10BD600031303132303030303830302530326400CC
:10BD70002DE9FC41884605460027144640F60C5143
:10BD80004048FDF721F95DB13FA13E48FCF73CFB7F
:10BD9000102102B04246BDE8F0413A4805F0AABE83
:10BDA0003EA13848FCF730FB0F26364D3BE060786B
:10BDB00021787F1C00EB0110A0F54C708DF800007D
:10BDC000E078A17800EB0110A0F54C708DF801002F
:10BDD0006079217900EB0110A0F54C708DF802001C
:10BDE000E079A17900EB0110A0F54C708DF803000B
:10BDF000607A217A00EB0110A0F54C708DF80400F8
:10BE0000E07AA17A04F5CC7400EB0110A0F54C7037
:10BE10008DF80500A81900990160BDF80410B61D41
:10BE20008180782F04DA2046FCF7D9FF0C28BED099
:10BE30004520A855761C4E20A855761C4420A855B0
:10BE4000711C4FF47A7091FBF0F03030687164200F
:10BE500091FBF0F20A2092FBF0F300FB1322303248
:10BE6000AA7191FBF0F292FBF0F300FB1322303247
:10BE7000EA7191FBF0F200FB121230322A72685420
:10BE8000491C86E798A901204150533131303031A7
:10BE9000353030313130310A00000000415053312B
:10BEA0003130303135303031313030002DE9FC4126
:10BEB000884604460027154640F60C514548FDF7D4
:10BEC00083F85CB144A14348FCF79EFA102102B00C
:10BED0004246BDE8F0413F4805F00CBE43A13D4855
:10BEE000FCF792FA45483B4E10240078F07342E08C
:10BEF000687829787F1C00EB0110A0F54C708DF854
:10BF00000000E878A97800EB0110A0F54C708DF8DE
:10BF100001006879297900EB0110A0F54C708DF8CB
:10BF20000200E879A97900EB0110A0F54C708DF8BA
:10BF30000300687A297A00EB0110A0F54C708DF8A7
:10BF40000400E87AA97A00EB0110A0F54C708DF896
:10BF50000500301900990160BDF804108180E8895E
:10BF6000A41D000A3055A87B641C05F5CC7530551E
:10BF7000641C782F04DA2846FCF731FF0C28B7D070
:10BF800045203055611C4E207054A11C4420705433
:10BF90004FF47A70E11C91FBF0F030307071642046
:10BFA00091FBF0F20A2092FBF0F300FB13223032F7
:10BFB000B27191FBF0F292FBF0F300FB13223032EE
:10BFC000F27191FBF0F200FB1212303232727054B7
:10BFD000491C7CE798A90120415053313130303160
:10BFE000353030313830310A0000000041505331D3
:10BFF0003130303135303031383030000C030020F2
:10C0000070B50D460446164640F60C510A48FCF73A
:10C01000DBFF54B109A10848FCF7F6F910212A46C4
:10C02000BDE87040044805F065BD324608A10248ED
:10C03000FCF7EAF92121F2E798A901204150533198
:10C0400031303031353030313230310A00000000CB
:10C05000415053313130303332303031323030258D
:10C0600073454E440A0000000FB42DE9F04F89B02B
:10C070000446DDE91D7A0020DDF880B0DDF8689027
:10C08000259E04900590069007901D46904640F628
:10C090000C514848FCF798FF2CB147A14548FCF7E4
:10C0A000B3F910217DE0224648A14248FCF7ACF9E3
:10C0B000404C3020B8F1000FE07300D031202074E4
:10C0C00065741698A0741798E074189820751998DC
:10C0D000607584F816901B98E0751C98207667763A
:10C0E00084F81AA01F98E07684F81CB02198607735
:10C0F0002298A0772398E077249884F8200084F889
:10C100002160269884F82200279884F82300289834
:10C1100084F824003248641D90F84E1090F8515075
:10C1200090F8503090F84F208DE82E0090F84D3068
:10C1300090F84C202BA104A8FCF766F91D4804993F
:10C1400040F8251F0599416006998160452084F8D3
:10C150002C004E2084F82D00442084F82E0034203A
:10C160004FF47A7190FBF1F130312170642190FB32
:10C17000F1F20A2192FBF1F301FB132230326270DB
:10C1800090FBF1F292FBF1F301FB13223032A2702B
:10C1900090FBF1F201FB12003030E07084F82F10B8
:10C1A00035210448139A05F0A5FC09B0BDE8F00F4D
:10C1B0005DF814FB98A901204150533131303031E2
:10C1C000353030313430310A0000000041505331F5
:10C1D000313030313530303134253032640A0000AE
:10C1E000489E01202530327825303278253032784B
:10C1F0002530327825303278253032780000000042
:10C20000F8B5054600200C460090164640F60C5145
:10C210002348FCF7D9FE012D39D022A12048FCF794
:10C22000F3F81F496A460F31304620F0F7FC0099B9
:10C230001B480F3145224254491C4E224254491C8E
:10C24000442242544FF47A72491C91FBF2F230328C
:10C250004271642291FBF2F30A2293FBF2F502FB96
:10C2600015333033837191FBF2F393FBF2F502FB4C
:10C2700015333033C37191FBF2F302FB13133033E8
:10C28000037242542246491C05F034FCF8BD09A152
:10C290000348FCF7B9F8102122460148F4E70000F2
:10C2A00098A9012041505331313030313530303090
:10C2B000333030004150533131303031353030304F
:10C2C0003330310A000000002DE9F05F8B4606464E
:10C2D0001D461446002740F60C51FE48FCF774FE3C
:10C2E000012E5CD0DFF8F08398F86300002858D066
:10C2F000FAA1F848FCF788F8F64EE8174FF0300935
:10C3000005EB106086F80F904FF0310A010A86F8AD
:10C3100010A071742846B07498F8641098F86300FF
:10C320001A2501EB0010A0F54C70F07498F8660027
:10C3300098F8651000EB0110A0F54C70307598F876
:10C34000680098F8671000EB0110A0F54C7070754C
:10C3500098F86A0098F8691000EB0110A0F54C708D
:10C36000B07598F86C1098F86B0001EB0010A0F510
:10C370004C70F07598F86E1098F86D0001EB001095
:10C38000A0F54C70307698F8700098F86F10DFF8D0
:10C390005C8300EB0110A0F54C7070764EE0D4A1E8
:10C3A00000E0D8A1CB48FCF72FF810215A46C94825
:10C3B00074E0207C072875D005287DD00628FCD0A5
:10C3C0006078217800EB0110A0F54C707055E07892
:10C3D000A1786D1C00EB0110A0F54C7070556079D0
:10C3E00021796D1C00EB0110A0F54C707055E079BF
:10C3F000A1796D1C00EB0110A0F54C707055607AAE
:10C40000217A6D1C00EB0110A0F54C707055E07A9C
:10C41000A17A6D1C00EB0110A0F54C7070556D1CDD
:10C42000002070556D1C484606F805906D1C7F1C59
:10C4300070556D1C04F5CC74782F04DA2046FCF797
:10C44000CEFC0C28B5D045207055691C4E20705488
:10C45000A91C442070544FF47A70E91C91FBF0F051
:10C4600030307071642091FBF0F00A2290FBF2F3FF
:10C4700002FB13003030B07191FBF2F090FBF2F34D
:10C4800002FB13003030F07191FBF2F002FB101050
:10C490003030307272548F485A46491CBDE8F05F04
:10C4A00005F028BB6078217800EB0110A0F54C70F6
:10C4B0007055E078A17800E077E000EB01106D1C8A
:10C4C000A0F54C707055607921796D1C00EB01105E
:10C4D000A0F54C707055E079A1796D1C00EB01104E
:10C4E000A0F54C707055607A217A6D1C00EB01103C
:10C4F000A0F54C707055E07AA17A6D1C00EB01102C
:10C50000A0F54C707055207D6D1CC0F30010705567
:10C510006D1C414606F805906D1C06F805A06D1CC3
:10C52000E06A3AF08DFD3AF0EFFCC11700EB1160C4
:10C53000000A705541466D1CE06A3AF081FD3AF000
:10C54000E3FC7055606B6D1C6430C11700EB11602B
:10C55000000A7055606B6D1C64307055A06A6D1CCC
:10C56000C11700EB1160000A70556D1CA06A705570
:10C57000206B6D1CC11700EB1160000A70556D1C1B
:10C58000206B7055206C6D1CC11700EB1160000A08
:10C5900070556D1C206C7055206BC11700EB11603D
:10C5A000000A6D1C7055206BC0E06078217800EBAC
:10C5B0000110A0F54C707055E078A1786D1C00EB6F
:10C5C0000110A0F54C707055607921796D1C00EB5D
:10C5D0000110A0F54C707055E079A1796D1C00EB4D
:10C5E0000110A0F54C707055607A217A6D1C00EB3B
:10C5F0000110A0F54C707055E07AA17A6D1C00EB2B
:10C600000110A0F54C707055207D6D1CC0F300101A
:10C6100070556D1C322006F805906D1C4146705512
:10C620006D1CE06A3AF00CFD3AF06EFCC11700EBAD
:10C630001160000A705541466D1CE06A3AF000FD39
:10C640003AF062FC7055606B6D1C6430C11700EBF2
:10C650001160000A7055606B6D1C64307055A06AE3
:10C660006D1CC11700EB1160000A70556D1CA06AAB
:10C670007055206B6D1CC11700EB1160000A7055DE
:10C680006D1C206B7055206C6D1CC11700EB116088
:10C69000000A70556D1C206C7055606C6D1CC117C4
:10C6A00000EB1160000A70556D1C606C7055206DB8
:10C6B0006D1CC11700EB1160000A70556D1C206DD8
:10C6C0007055606D6D1CC11700EB1160000A70554C
:10C6D0006D1C21E098A90120489E01204150533152
:10C6E00031303030303030303230300000002041D6
:10C6F0004150533131303031353030303230310A01
:10C70000000000004150533131303031353030308D
:10C710003230320A00000000606D7055206EC11783
:10C7200000EB1160000A6D1C7055206E7EE6000063
:10C7300070B50C46054640F60C510748FCF744FC22
:10C740002A4606A10448FBF75FFE2246BDE870407A
:10C750001021014805F0CEB998A90120415053316C
:10C76000313030313530303035253032640A000018
:10C770002DE9F0410C4605461E46174640F60C5181
:10C780000C48FCF721FC012C0CD033463A460AA198
:10C790000848FBF739FE2A461821BDE8F041054854
:10C7A00005F0A8B90BA10348FBF72EFE2A4610217D
:10C7B000F3E7000098A90120415053313130303265
:10C7C00033303031353030253032782530336445E0
:10C7D0004E440A0041505331313030313530303120
:10C7E0003530310A0000000070B50C46054640F6B1
:10C7F0000C510748FCF7E8FB2A4606A10448FBF762
:10C8000003FE2246BDE870401021014805F072B9D0
:10C8100098A901204150533131303031353030301A
:10C8200036253032640A000070B50C46054640F6E5
:10C830000C510748FCF7C8FB2A4606A10448FBF741
:10C84000E3FD2246BDE870401021014805F052B9D1
:10C8500098A90120415053313130303135303031D9
:10C8600030253032640A000070B50C46054640F6AB
:10C870000C510748FCF7A8FB2A4606A10448FBF721
:10C88000C3FD2246BDE870401021014805F032B9D1
:10C8900098A901204150533131303031353030309A
:10C8A00037253032640A000070B51D4C4FF0FF355B
:10C8B0002946E06827F04AF90AF01CF9032119A07B
:10C8C00007F0B0F94FF4AF76304625F023FFE0884B
:10C8D000B8B1012214A11548FCF726FA88B90AF06C
:10C8E00009F9012110A007F09DF9304625F012FF4B
:10C8F000E088032805D303220DA10C48FCF714FAA5
:10C9000020B1E06827F07CF8284670BD09A0FBF74D
:10C9100065FD0AF0EFF8E06827F072F8002070BDBE
:10C92000A00100202B2B2B0061000000A6B00020EE
:10C930002B6F6B004154203A612B6F6B0A00000093
:10C9400070B5144C4FF0FF352946E06827F0FEF82B
:10C950000AF0D0F8082110A007F064F94FF496709F
:10C9600025F0D8FEE0880A2805D303220DA10E4841
:10C97000FCF7DAF920B1E06827F042F8284670BDEC
:10C980000AA0FBF72BFD0AF0B5F8E06827F038F8AD
:10C99000002070BDA001002041542B454E544D0A8B
:10C9A000000000002B6F6B00AFB0002041542B45FE
:10C9B0004E544D203A2B6F6B0A000000F0B5C1B009
:10C9C00000254FF480716846FCF720FB204C6E1E5A
:10C9D0003146E06827F0BAF80AF08CF81DA16846E5
:10C9E000FBF712FD69461FA0FBF7F8FC6846FCF751
:10C9F000F6F9411C684607F015F94FF41677052043
:10CA000025F088FE6846FCF7EAF9E188001D8842B7
:10CA10000BD86846FCF7E3F913490322084413A135
:10CA2000401CFCF781F918B908E06D1CBD42E6DB3B
:10CA3000E06826F0E5FF304641B0F0BD0CA0FBF702
:10CA4000CDFC0AF057F8E06826F0DAFF0020F3E7A3
:10CA5000A001002041542B4641505354413D6F6E7C
:10CA60000A00000025730A00A6B000202B6F6B009F
:10CA700041542B4641505354413A2B6F6B0A0000EE
:10CA8000F0B5C1B0074600254FF480716846FCF749
:10CA9000BDFA214C6E1E3146E06827F057F80AF0C7
:10CAA00029F83A461DA16846FBF7AEFC69461FA06F
:10CAB000FBF794FC6846FCF792F9411C684607F0C6
:10CAC000B1F84FF4C877052025F024FE6846FCF73E
:10CAD00086F9E188001D88420BD86846FCF77FF98B
:10CAE00013490322084413A1401CFCF71DF918B98F
:10CAF00008E06D1CBD42E6DBE06826F081FF3046B1
:10CB000041B0F0BD0CA0FBF769FC09F0F3FFE06851
:10CB100026F076FF0020F3E7A001002041542B54BB
:10CB20004350414444423D25730A000025730A00E6
:10CB3000A6B000202B6F6B0041542B54435041444E
:10CB40004442203A2B6F6B0A00000000F0B5C1B0E0
:10CB5000074600254FF480716846FCF757FA214CD0
:10CB60006E1E3146E06826F0F1FF09F0C3FF3A4639
:10CB70001DA16846FBF748FC69461FA0FBF72EFC89
:10CB80006846FCF72CF9411C684607F04BF84FF457
:10CB9000C877052025F0BEFD6846FCF720F9E1883E
:10CBA000001D88420BD86846FCF719F91349032287
:10CBB000084413A1401CFCF7B7F818B908E06D1C35
:10CBC000BD42E6DBE06826F01BFF304641B0F0BD19
:10CBD0000CA0FBF703FC09F08DFFE06826F010FFC6
:10CBE0000020F3E7A001002041542B54435041445E
:10CBF00044433D25730A000025730A00A6B00020B7
:10CC00002B6F6B0041542B54435041444443203A12
:10CC10002B6F6B0A00000000F0B5C1B000254FF487
:10CC200080716846FCF7F2F9204C6E1E3146E068D0
:10CC300026F08CFF09F05EFF1DA16846FBF7E4FBC0
:10CC400069461EA0FBF7CAFB6846FCF7C8F8411C02
:10CC5000684606F0E7FF4FF4C877052025F05AFD37
:10CC60006846FCF7BCF8E188001D88420BD868468E
:10CC7000FCF7B5F812490322084412A1401CFCF746
:10CC800053F818B908E06D1CBD42E6DBE06826F0F9
:10CC9000B7FE304641B0F0BD0BA0FBF79FFB09F09B
:10CCA00029FFE06826F0ACFE0020F3E7A001002099
:10CCB00041542B544350423D6F6E0A0025730A00C5
:10CCC000A6B000202B6F6B0041542B544350423DC3
:10CCD0006F6E203A2B6F6B0A00000000F0B5C1B0F8
:10CCE00000254FF480716846FCF790F9204C6E1EC9
:10CCF0003146E06826F02AFF09F0FCFE1DA16846D7
:10CD0000FBF782FB69461EA0FBF768FB6846FCF751
:10CD100066F8411C684606F085FF4FF4C877052089
:10CD200025F0F8FC6846FCF75AF8E188001D8842B7
:10CD30000BD86846FCF753F812490322084412A1A5
:10CD4000401CFBF7F1FF18B908E06D1CBD42E6DBA3
:10CD5000E06826F055FE304641B0F0BD0BA0FBF771
:10CD60003DFB09F0C7FEE06826F04AFE0020F3E72D
:10CD7000A001002041542B544350433D6F6E0A00E4
:10CD800025730A00A6B000202B6F6B0041542B5472
:10CD9000435043203A2B6F6B0A000000F0B5C1B03E
:10CDA000074600254FF480716846FCF72FF9214CA7
:10CDB0006E1E3146E06826F0C9FE09F09BFE3A4639
:10CDC0001DA16846FBF720FB69461FA0FBF706FB89
:10CDD0006846FCF704F8411C684606F023FF4FF450
:10CDE000C877052025F096FC6846FBF7F8FFE18838
:10CDF000001D88420BD86846FBF7F1FF1349032258
:10CE0000084413A1401CFBF78FFF18B908E06D1C04
:10CE1000BD42E6DBE06826F0F3FD304641B0F0BDF0
:10CE20000CA0FBF7DBFA09F065FEE06826F0E8FDF0
:10CE30000020F3E7A001002041542B5443505054EC
:10CE4000423D25640A00000025730A00A6B00020B8
:10CE50002B6F6B0041542B544350505442203A2BBB
:10CE60006F6B0A00F0B5C1B0074600254FF4807122
:10CE70006846FCF7CBF8214C6E1E3146E06826F080
:10CE800065FE09F037FE3A461DA16846FBF7BCFA7D
:10CE900069461FA0FBF7A2FA6846FBF7A0FF411CFA
:10CEA000684606F0BFFE4FF4C877052025F032FC37
:10CEB0006846FBF794FFE188001D88420BD868465E
:10CEC000FBF78DFF13490322084413A1401CFBF715
:10CED0002BFF18B908E06D1CBD42E6DBE06826F0C8
:10CEE0008FFD304641B0F0BD0CA0FBF777FA09F09A
:10CEF00001FEE06826F084FD0020F3E7A001002099
:10CF000041542B5443505054433D25640A000000C3
:10CF100025730A00A6B000202B6F6B0041542B54E0
:10CF200043505054433A2B6F6B0A00002DE9F041F7
:10CF30001E4C00256E1E3146E06826F007FE09F003
:10CF4000D9FD07211AA006F06DFE4FF4C877052021
:10CF500025F0E0FBE0880A2813D3032216A1174826
:10CF6000FBF7E2FEB8B1E06826F04AFD134A14A1CF
:10CF7000D21F07201DF0FEFA09F0BCFD0020BDE81D
:10CF8000F0816D1CBD42E2DBE06826F039FD09F05E
:10CF9000B1FD3046F3E70CA107201DF0D3FD09F0E9
:10CFA000A9FDE06826F02CFDF3E70000A0010020B9
:10CFB00041542B5645520A002B6F6B00ADB0002038
:10CFC00056657273696F6E0041545F564552205723
:10CFD00049464920476574207265706C79207469F0
:10CFE0006D65206F757420310000000070B59AB037
:10CFF000064664216846FCF709F81D4C4FF0FF35E2
:10D000002946E06826F0A2FD09F074FD324619A118
:10D010006846FBF7F9F969461DA0FBF7DFF968469A
:10D02000FBF7DDFE411C684606F0FCFD4FF47A700C
:10D0300025F070FBE0880A280AD36846FBF7CFFE8C
:10D0400014490322084414A1401CFBF76DFE28B1CB
:10D05000E06826F0D5FC28461AB070BD0FA0FBF79B
:10D06000BDF909F047FDE06826F0CAFC0020F3E7AF
:10D07000A001002041542B57414B45593D57504189
:10D080003250534B2C4145532C25730A00000000AD
:10D0900025730000A6B000202B6F6B0041542B5766
:10D0A000414B4559203A2B6F6B0A000030B599B0BF
:10D0B00064216846FBF7AAFF1C4C4FF0FF35294658
:10D0C000E06826F043FD09F015FD19A16846FBF75D
:10D0D0009BF969461BA0FBF781F96846FBF77FFEC9
:10D0E000411C684606F09EFD4FF47A7025F012FB55
:10D0F000E0880A280AD36846FBF771FE124903222A
:10D10000084412A1401CFBF70FFE28B1E06826F08E
:10D1100077FC284619B030BD0DA0FBF75FF909F088
:10D12000E9FCE06826F06CFC0020F3E7A001002099
:10D1300041542B57414B45593D4F50454E2C4E4F76
:10D140004E450A0025730000A6B000202B6F6B002F
:10D1500041542B57414B455920436C656172203A2D
:10D160002B6F6B0A0000000070B59AB00646642170
:10D170006846FBF74BFF1D4C4FF0FF352946E06832
:10D1800026F0E4FC09F0B6FC324619A16846FBF72C
:10D190003BF969461DA0FBF721F96846FBF71FFE26
:10D1A000411C684606F03EFD4FF47A7025F0B2FA55
:10D1B000E0880A280AD36846FBF711FE14490322C7
:10D1C000084414A1401CFBF7AFFD28B1E06826F02D
:10D1D00017FC28461AB070BD0FA0FBF7FFF809F046
:10D1E00089FCE06826F00CFC0020F3E7A001002099
:10D1F00041542B5741503D313142474E2C45435508
:10D200005F525F25732C4175746F0A00257300000F
:10D21000A6B000202B6F6B0041542B574150203A91
:10D220002B6F6B0A000000002DE9F041C0B0804672
:10D2300000254FF480716846FBF7E8FE224C6E1E15
:10D240003146E06826F082FC09F054FC42461FA1FA
:10D250006846FBF7D9F8694620A0FBF7BFF8684697
:10D26000FBF7BDFD411C684606F0DCFC4FF4C877B7
:10D27000052025F04FFA6846FBF7B1FDE188001D57
:10D2800088420BD86846FBF7AAFD154903220844DB
:10D2900014A1401CFBF748FD18B909E06D1CBD4204
:10D2A000E6DBE06826F0ACFB304640B0BDE8F0813C
:10D2B00041460DA0FBF792F809F01CFCE06826F04F
:10D2C0009FFB0020F1E70000A001002041542B57F4
:10D2D0004D4F44453D25730A0000000025730A00A8
:10D2E000A6B000202B6F6B0041542B41545F574D6B
:10D2F0004F44453A2573202B6F6B0A0070B5144CD0
:10D300004FF0FF352946E06826F020FC09F0F2FBDB
:10D31000052110A006F086FC4FF4967025F0FAF96E
:10D32000E088062805D303220CA10D48FBF7FCFC7E
:10D3300020B1E06826F064FB284670BD09A0FBF729
:10D340004DF809F0D7FBE06826F05AFB002070BDCD
:10D35000A001002041542B5A0A0000002B6F6B00E3
:10D36000ACB0002041542B5A203A2B6F6B0A0000BE
:10D37000FEE7000010B525F0BBFD03480EF006FDEA
:10D38000BDE8104025F0CCBD4461002010B525F06B
:10D39000AFFD03480EF0FAFCBDE8104025F0C0BD1B
:10D3A0009861002010B50446000F02D008480442DE
:10D3B00000D124B940F20E2106A007F087FEE0005C
:10D3C00002D51348046010BD1248446010BD00002F
:10D3D0000000F0EF2E2E5C4C696272617269657319
:10D3E0005C53544D3332463130785F53746450652A
:10D3F000726970685F4472697665725C7372635CAF
:10D4000073746D3332663130785F646D612E630002
:10D41000040402400000024070B5044622480D4654
:10D4200084422FD02048143084422BD01E4828300C
:10D43000844227D01C483C30844223D01A485030C4
:10D4400084421FD01848643084421BD0164878307C
:10D45000844217D01548844214D0144814308442B2
:10D4600010D01248283084420CD010483C308442FE
:10D4700008D00E485030844204D040F229110CA04C
:10D4800007F024FE55B1012D04D04FF4957108A08A
:10D4900007F01CFE206840F0010003E020684FF612
:10D4A000FE710840206070BD080002400804024080
:10D4B0002E2E5C4C69627261726965735C53544DC7
:10D4C0003332463130785F537464506572697068E6
:10D4D0005F4472697665725C7372635C73746D33FA
:10D4E00032663130785F646D612E630070B5C46B55
:10D4F0000646C56C8CB0012240F22441206805F03C
:10D50000CBFB0121084603F093FC0121022003F02C
:10D510008FFCA06800F098F820686946001D009014
:10D5200028680025CDE90105B06CC0F38F20CDE956
:10D5300003058020CDE905058001CDE90850079558
:10D540000A95A06800F0DCFAE068FFF72BFF0122E3
:10D550000221A06800F062FA01224021206805F053
:10D560003DFA0121A068FFF757FF207C8DF82C00C1
:10D570008DF82D5001208DF82E008DF82F000BA86E
:10D5800002F0D8FB0CB070BD2DE9F04705468CB019
:10D590008846D5E9200117460843D5E91E121143F4
:10D5A0001E460843FFF7FEFE0021686FFFF734FFB9
:10D5B000E86EDFF890900C300024009004944FF453
:10D5C0004050CDE908400294069407944FF0800A39
:10D5D00003960A941FB1CDF814A0019702E0CDF88C
:10D5E000049005946946686F00F08AFA0121686F1B
:10D5F000FFF712FF0021286FFFF70EFFE86E079478
:10D600000C3000901020029000020494CDE90840F4
:10D61000069403960A94B8F1000F04D0CDF814A034
:10D62000CDF8048002E0CDF8049005946946286F97
:10D6300000F066FA0121286FFFF7EEFE0CB0BDE89E
:10D64000F0870000580000202DE9F05F4D4E4D4F4F
:10D650004C4DDFF83081DFF82C91DFF828A1DFF89E
:10D6600024B114362837044608F13C0809F1500962
:10D670000AF1640A0BF1780BA84222D0B44220D000
:10D68000BC421ED044451CD04C451AD0544518D03D
:10D690005C4516D03C48844213D03B481430844249
:10D6A0000FD03948283084420BD037483C30844270
:10D6B00007D035485030844203D06F2133A007F0A3
:10D6C00005FD20684FF6FE710840206000202060B4
:10D6D0006060A060E0602B480838AC4203D141682C
:10D6E00041F00F0104E0B44205D1416841F0F0017E
:10D6F0004160BDE8F09FBC4203D1416841F47061D4
:10D70000F6E7444503D1416841F47041F0E74C45E8
:10D7100003D1416841F47021EAE7544503D14168DF
:10D7200041F47001E4E75C4503D1416841F0706168
:10D73000DEE71549081F8C4203D1016841F00F0153
:10D7400006E0114914318C4204D1016841F0F00126
:10D750000160CEE70C4928318C4203D1016841F4C5
:10D760007061F5E708493C318C4203D1016841F40E
:10D770007041EDE7044950318C42BAD1016841F45F
:10D780007021E5E708000240080402402E2E5C4CA0
:10D7900069627261726965735C53544D333246310C
:10D7A00030785F5374645065726970685F44726961
:10D7B0007665725C7372635C73746D33326631309C
:10D7C000785F646D612E630010B504461A48844288
:10D7D0002FD01948143084422BD017482830844267
:10D7E00027D015483C30844223D01348503084421F
:10D7F0001FD01148643084421BD00F4878308442D7
:10D8000017D00E48844214D00C481430844210D0F3
:10D810000A48283084420CD008483C30844208D062
:10D8200006485030844204D04FF4BB7104A007F086
:10D830004DFC606880B210BD080002400804024040
:10D840002E2E5C4C69627261726965735C53544D33
:10D850003332463130785F53746450657269706852
:10D860005F4472697665725C7372635C73746D3366
:10D8700032663130785F646D612E630070B50025CB
:10D88000044601287ED0022C7CD0042C7AD0082CAF
:10D8900078D0102C76D0202C7FD0402C7DD0802CBE
:10D8A0007BD0B4F5807F78D0B4F5007F75D0B4F527
:10D8B000806F72D0B4F5006F6FD0B4F5805F6CD01C
:10D8C000B4F5005F69D0B4F5804F66D0B4F5004F71
:10D8D00063D0B4F5803F60D0B4F5003F5DD0B4F5BF
:10D8E000802F5AD0B4F5002F57D0B4F5801F54D0F4
:10D8F000B4F5001F51D0B4F5800F4ED0B4F5000F31
:10D900004BD0B4F1807F48D0B4F1007F45D0B4F162
:10D91000806F42D0B4F1006F3FD06FF08050C442AE
:10D920003BD0A4F18050801E37D0801E35D0001F20
:10D9300033D0083831D010382FD020382DD040388F
:10D940002BD01B48844228D01A48844225D01A483C
:10D95000844222D0194884421FD0B4F1102F1CD029
:10D960004FEAF030844218D01548844215D015484B
:10D97000844212D0144884420FD0144884420CD000
:10D98000134800E009E0844207D01248844204D0E2
:10D9900040F2B71110A007F099FBE00001D51D4837
:10D9A00000E01D480068204200D00125284670BDD7
:10D9B0000001001000020010000400100008001018
:10D9C0000040001000800010000001100000021054
:10D9D00000000410000008102E2E5C4C6962726179
:10D9E000726965735C53544D3332463130785F53FE
:10D9F00074645065726970685F4472697665725CC0
:10DA00007372635C73746D3332663130785F646D4A
:10DA1000612E6300000402400000024070B504461D
:10DA2000264816460D4684422FD02448143084429E
:10DA30002BD022482830844227D020483C308442D2
:10DA400023D01E48503084421FD01C48643084428A
:10DA50001BD01A487830844217D01948844214D019
:10DA600017481430844210D01548283084420CD016
:10DA700013483C30844208D011485030844204D0CE
:10DA800040F249110FA007F021FB35F00E0000D144
:10DA900025B94FF4A5710BA007F018FB4EB1012E6C
:10DAA00004D040F24B1107A007F010FB2068284378
:10DAB00001E02068A843206070BD0000080002401B
:10DAC000080402402E2E5C4C6962726172696573B3
:10DAD0005C53544D3332463130785F537464506533
